:020000040800F2
:10000000F0070020D5010008B10C0008710C0008B1
:10001000AD0C0008F9040008BB1300080000000044
:10002000000000000000000000000000510E000869
:10003000E505000800000000390D0008191000084F
:10004000EF010008EF010008EF010008EF010008D0
:10005000EF010008EF010008D507000809080008B3
:10006000EF010008EF010008EF010008EF010008B0
:10007000EF010008EF010008EF010008EF010008A0
:10008000EF010008EF010008EF010008EF01000890
:10009000EF010008EF010008EF010008EF01000880
:1000A000EF010008EF010008EF010008EF01000870
:1000B000EF010008EF010008EF010008EF01000860
:1000C000EF010008EF010008EF010008EF01000850
:1000D000EF0100087D100008051100083511000827
:1000E000EF010008EF010008EF010008EF01000830
:1000F000EF010008EF010008EF010008EF01000820
:10010000EF010008EF010008EF010008EF0100080F
:10011000EF010008EF010008EF010008EF010008FF
:10012000EF010008EF010008EF010008EF010008EF
:1001300000F002F800F03FF80AA090E8000C8244BA
:100140008344AAF10107DA4501D100F034F8AFF297
:10015000090EBAE80F0013F0010F18BFFB1A43F0A5
:10016000010318478C270000AC270000103A24BF79
:1001700078C878C1FAD8520724BF30C830C144BF0C
:1001800004680C607047000000230024002500264E
:10019000103A28BF78C1FBD8520728BF30C148BFEA
:1001A0000B607047642900F04380002070471FB542
:1001B0001FBD10B510BD00F071F91146FFF7F7FF34
:1001C00001F0F6FC00F08FF903B4FFF7F2FF03BC77
:1001D00001F02AFC0948804709480047FEE7FEE78E
:1001E000FEE7FEE7FEE7FEE7FEE7FEE7FEE7FEE7E7
:1001F00004480549054A064B704700001D100008D9
:1002000031010008F0010020F0070020F003002079
:10021000F0030020704700000FB4044910B503AA92
:10022000029800F005F910BC5DF814FBAC0000204A
:100230002DE9F0410646002410687529314616A5BF
:1002400010D0AFF30080002802DA404213A507E087
:1002500031688A0701D512A502E0490704D511A526
:10026000012401E0AFF3008000210A2206F12407F7
:1002700009E0B0FBF2FCB0FBF2F302FB1C003030F3
:1002800078541846491C0028F3D123462A463046A4
:10029000BDE8F04100F073B8000000002D00000040
:1002A0002B000000200000002DE9F0410F4605461C
:1002B000002028622846E968884770B3252805D0C1
:1002C000D5E901219047286A401CF2E7E9682846F1
:1002D000002688476C2804460AD0682C08D04C2C8D
:1002E00035D06A2C31D0742C31D07A2C2FD016E036
:1002F000E968064628468847B042044608D16C2E75
:1003000023D04FF480662846E9688847044606E013
:100310006C2E03D04FF4807601E01EE04026E4B15D
:10032000A4F14100192802D8203446F400663A4668
:10033000214628462E60FFF735FF60B1012808D01E
:10034000FF1D27F007070837B4E78026DBE7002604
:10035000D9E73F1DAEE72046B2E7286ABDE8F08145
:10036000704770477047704710B500F073F8006829
:1003700010BD10B5044600F06DF8046010BD2DE905
:10038000F0470D4699469246044600F1240801685C
:10039000880604D5E06921F01001216000E0012009
:1003A000A84201DD471B00E00027A1697A1902EB92
:1003B0000900081AA0612078C00602D42046AFF3D5
:1003C0000080002608E0D4E901211AF806009047D1
:1003D000206A401C761C20624E45F4DB2078C00663
:1003E0000AD52046AFF3008006E0D4E90121302091
:1003F0009047206A401C2062381EA7F10107F4DCF8
:1004000007E0D4E9012118F805009047206A401C54
:100410002062281EA5F10105F3DC2046AFF3008021
:100420002078000602D50220BDE8F0870120FBE716
:10043000074B70B50D467B4400F015F8044628467E
:1004400000F024F810B14FF0FF3070BD204670BDB1
:1004500023170000004870479001002001694A1CE2
:1004600002610878704700B58FB0CDE901310021F5
:10047000059105497944CDE9031011466846FFF717
:1004800013FF0FB000BD0000E5FFFFFF007B00F091
:100490008000704700487047900100207546FFF7C4
:1004A000F9FFAE4605006946534620F00700854631
:1004B00018B020B5FFF79CFEBDE820404FF00006C5
:1004C0004FF000074FF000084FF0000B21F007013C
:1004D000AC46ACE8C009ACE8C009ACE8C009ACE87F
:1004E000C0098D46704710B50446AFF30080204622
:1004F000BDE81040FFF768BE00BFFEE710B51E481C
:10050000006810F12D0F01DD012000E000202D28F2
:1005100002DA002019490860174800682D2801DD1B
:10052000012000E00020872802DA5A2013490860E1
:1005300011480068872804DC0F48006810F1870F15
:1005400002DAB4200D4908600B48006810F1870FEB
:1005500001DD012000E0002010F12D0F03DA6FF023
:1005600059000649086000200549086005490860EF
:1005700000F00AF810BD00000C0000201000002060
:10058000040000200000002010B54021144800F0B5
:100590001FFEA521124800F00CFF00BF40211048AB
:1005A00000F03AFE0028F9D055210D4800F001FF77
:1005B00000BF40210A4800F02FFE0028F9D0A521F5
:1005C000074800F0F6FE00BF4021054800F024FE79
:1005D0000028F9D05221024800F0EBFE10BD0000C7
:1005E00000480040704700002DE9F04F87B0654893
:1005F000006801F056FE0646634A644B01F07CFE3B
:1006000004460022624B01F0C5FC624A03C2624804
:10061000006801F046FE614A03C26148006801F0CB
:1006200040FE604A03C260485C490CC803C901F03F
:100630006DFF5E4A03C25E485A490CC803C901F007
:1006400065FF5C4A03C200225B4B584903C901F0B5
:10065000A1FC06460022594B01F04EFE04464A4AD0
:100660004A4B01F049FE564A03C20022524B5149FF
:1006700003C901F08FFC06460022504B01F03CFEFE
:100680000446414A414B01F037FE4E4A03C23E4AFE
:100690004D4B404903C901F039FF064601F0C8F946
:1006A000044648480CC8204601F026FE82468B4688
:1006B000354A454B374903C901F028FF064601F08A
:1006C00019FB04463E480CC8204601F015FE524670
:1006D0005B46CDE9000101F019FFCDE902013B487D
:1006E000006801F0DEFD8046DDE9022301F0A2FB97
:1006F000CDE9040101F0A6FD34490860224A324BDD
:10070000244903C901F002FF064601F0F3FA04464A
:100710002C480CC8204601F0EFFD1B4A2A4BCDE9BE
:1007200002011C4903C901F0F1FE064601F080F9FF
:10073000044623480CC8204601F0DEFDCDE9000147
:10074000DDE9022301F076FB8046894620480068F7
:1007500001F0A7FD824642464B4601F06BFBCDE916
:10076000040101F06FFD1A4908600C4903C90E4AE3
:1007700003C20C48D0E900100D4AC2E9001007B0CE
:10078000BDE8F08F08000020C45F9335EA210940DE
:10079000008066405800002004000020180000205F
:1007A0000000002020000020280000204800002039
:1007B000300000205000002000408F4000004340E7
:1007C0003800002040000020EA21E93F68000020B6
:1007D0006C00002010B50A48006800F0200028B125
:1007E00008480068401E0749086004E005480068A2
:1007F000401C04490860012000F020F810BD0000F2
:10080000080801400400002010B50A48006800F004
:10081000400028B108480068401C0749086004E00F
:1008200005480068401E04490860022000F006F8F0
:1008300010BD0000080801400000002001490860C8
:100840007047000014040140002123498279002AE6
:100850003AD00A46126803689A430B461A600A1D8A
:10086000126803689A430B1D1A60027911440A68E2
:1008700003681A430A60184A0832126803689A43E8
:10088000154B08331A601A1D126803689A43124BFD
:100890000C331A604279102A0ED11A1F12680368AD
:1008A0001A430D4B08331A601A1D126803681A4365
:1008B000094B0C331A600DE00749427911440A686C
:1008C00003681A430A6005E0027911440A68036864
:1008D0009A430A6070470000000401401FB50121DF
:1008E000042000F03BFA0121084600F037FA01200D
:1008F000ADF8000048208DF8030069462F4800F04D
:100900007FF80021084600F05BF828208DF80300EE
:100910002020ADF800006946284800F071F8012059
:10092000029000208DF80C000C208DF80D000120A5
:100930008DF80E0002A8FFF787FF06208DF804004F
:1009400001208DF805008DF806008DF8070001A83C
:1009500000F0B0F90220ADF8000048208DF8030047
:100960006946164800F04CF80121002000F028F8F4
:1009700028208DF803004020ADF8000069460F489C
:1009800000F03EF80220029000208DF80C000C20B0
:100990008DF80D0001208DF80E0002A8FFF754FF1E
:1009A00007208DF8040001208DF805008DF8060061
:1009B0008DF8070001A800F07DF91FBD0008014077
:1009C00030B500228B071C0F0F2303FA04F20B4BE8
:1009D0008C1053F824309343084C8D1044F8253084
:1009E00023468C1053F824308C07240F00FA04F4AB
:1009F0002343024C8D1044F8253030BD08000140DF
:100A00002DE9F041024600250026002000230024A5
:100A1000002791F803C00CF00F0591F803C00CF00B
:100A2000100CBCF1000F03D091F802C04CEA050590
:100A300091F800C0BCF1000F31D0146800202BE009
:100A40004FF0010C0CFA00F3B1F800C00CEA0306F9
:100A50009E4220D183004FF00F0C0CFA03F7BC43E9
:100A600005FA03FC4CEA040491F803C0BCF1280F1A
:100A700006D14FF0010C0CFA00FCC2F814C00AE0D9
:100A800091F803C0BCF1480F05D14FF0010C0CFAEE
:100A900000FCC2F810C0401C0828D1D31460B1F883
:100AA00000C0BCF1FF0F34DD546800202EE000F1DF
:100AB000080C4FF0010808FA0CF3B1F800C00CEA7A
:100AC00003069E4221D183004FF00F0C0CFA03F76E
:100AD000BC4305FA03FC4CEA040491F803C0BCF1E2
:100AE000280F05D100F1080C08FA0CF8C2F81480A0
:100AF00091F803C0BCF1480F07D100F1080C4FF08A
:100B0000010808FA0CF8C2F81080401C0828CED35F
:100B10005460BDE8F0810246002093680B400BB1A1
:100B2000012000E0002070470161704730B58DB0B2
:100B300005460C460121042000F010F9012108208F
:100B400000F00CF90121880400F0F8F801214804B4
:100B500000F0F4F818208DF833004FF48060ADF801
:100B6000300003208DF832000CA93D48FFF748FF04
:100B700004208DF833004002ADF830000CA938484D
:100B8000FFF73EFF18208DF80B000420ADF8080099
:100B900003208DF80A0002A93248FFF731FF042034
:100BA0008DF80B000820ADF8080002A92D48FFF7CA
:100BB00027FF08950020ADF82C000C20ADF82A0086
:100BC0000020ADF82800ADF82600ADF8240008A9F3
:100BD000254800F07DFB0121234800F011FB012294
:100BE00040F22551204800F04EFB03940020ADF860
:100BF00018000C20ADF816000020ADF81400ADF878
:100C00001200ADF8100003A9184800F061FB0121A3
:100C1000164800F0F5FA012240F22551134800F081
:100C200032FB27208DF81C0001208DF81F008DF865
:100C30001D0002208DF81E0007A800F03BF82620BA
:100C40008DF8040001208DF8070002208DF80500C2
:100C50008DF8060001A800F02DF80DB030BD0000A1
:100C6000000C0140000801400048004000440040E2
:100C700000BFFEE708B50121102000F06FF84FF427
:100C80000050ADF8000010208DF8030003208DF80F
:100C9000020069460448FFF7B3FE4FF400510248D2
:100CA000FFF742FF08BD00000010014000BFFEE753
:100CB0007047000070B5002100230F22C47804B3F0
:100CC000154C246804F4E064C4F5E064210AC1F121
:100CD0000403CA40447804FA03F1847814402143A1
:100CE00009010E4C0678A155047804F01F05012473
:100CF000AC4005786D11AD0005F1E025C5F8004167
:100D000009E0047804F01F050124AC40044D067886
:100D1000761145F8264070BD0CED00E000E400E0DF
:100D200080E100E002490143024A1160704700007F
:100D30000000FA050CED00E07047000029B1064AFA
:100D4000D2690243044BDA6104E0034AD269824368
:100D5000014BDA61704700000010024029B1064AD9
:100D600092690243044B9A6104E0034A9269824308
:100D7000014B9A61704700000010024030B500211D
:100D80000022002400232D4D6D6805F00C0121B1D7
:100D9000042905D0082923D105E0294D056022E06A
:100DA000274D05601FE0254D6D6805F47012234D39
:100DB0006D6805F48034022505EB92421CB9214D83
:100DC000554305600BE01D4D6D6805F400351DB100
:100DD0001C4D5543056002E0194D5543056002E086
:100DE000174D056000BF00BF144D6D6805F0F001A0
:100DF0000909154D6B5C0568DD4045600F4D6D6858
:100E000005F4E061090A104D6B5C4568DD408560C2
:100E10000A4D6D6805F46051C90A0B4D6B5C45685D
:100E2000DD40C560054D6D6805F44041890B074DF7
:100E30006B5CC568B5FBF3F5056130BD0010024081
:100E400000127A0000093D00B2000020C20000201C
:100E50007047000070B505460E4619480068C0F39B
:100E60000F20184948801648008888801648006876
:100E7000C0F30F20C8801448008808811348006818
:100E8000C0F30F20488111480088888110480088ED
:100E9000C881002410E035F814100E4800F089FADB
:100EA00000BF40210B4800F0B7F90028F9D001201D
:100EB00000F02EFE601CC4B2B442ECDB70BD00003A
:100EC00068000020740000206C0000200800002052
:100ED000700000200044004010B500F001F810BD83
:100EE0000CB50020019000903348006840F4803039
:100EF0003149086000BF3048006800F400300090BD
:100F00000198401C0190009818B90198B0F5A06FA5
:100F1000F1D12948006800F4003010B101200090A0
:100F200001E0002000900098012843D12348006888
:100F300040F01000214908600846006820F00300D6
:100F400008600846006840F0020008601A484068DF
:100F5000194948600846406848600846406840F4BF
:100F6000806048600846406820F47C10486008466D
:100F7000406840F4E81048600846006840F080701F
:100F8000086000BF0C48006800F000700028F9D02D
:100F90000948406820F00300074948600846406857
:100FA00040F00200486000BF0348406800F00C00B9
:100FB0000828F9D10CBD00000010024000200240BA
:100FC000012080F3138800BF00BF0748006800F4C9
:100FD000E06006490843001D03490860BFF34F8FD6
:100FE00000BF00BFFEE700000CED00E00000FA05C6
:100FF000042808D14FF0E021096941F004014FF0C5
:10100000E022116107E04FF0E021096921F00401BD
:101010004FF0E022116170477047000010B513488F
:10102000006840F001001149086008464068104916
:1010300008400E494860084600680E4908400B49C0
:1010400008600846006820F4802008600846406870
:1010500020F4FE0048604FF41F008860FFF73CFF5B
:101060004FF000600449086010BD0000001002400D
:101070000000FFF8FFFFF6FE08ED00E010B540F2BB
:1010800025511D4800F0D5F810B31B4800F08CF92D
:10109000C4B21A48008800F40040C8B91748008854
:1010A00000F4804060B10A2C03D00020134908806E
:1010B00020E01248008840F400401049088019E000
:1010C0000D2C06D10D48008840F480400B49088063
:1010D00010E00A480088C0F30D0009490C54074885
:1010E0000088401C0549088008460088C72801DDA3
:1010F0000020088010BD000000380140B000002032
:10110000C800002010B540F22551094800F091F8C0
:1011100038B1074800F048F9C4B2722C01D1FFF78A
:101120004FFF40F22551024800F05BF810BD00006F
:101130000044004010B540F22551214800F079F8F4
:1011400000283CD01E4800F02FF9C1B21D4802789B
:101150000078401C1B4B18701B4881540078AA284B
:1011600004D0002019460870174908701548007807
:10117000082824D11448C07955281DD112488078F8
:101180001149497840EA0120104908600846006882
:10119000642190FBF1F00D49086008460068B0F545
:1011A000E47F05DB08460068A0F28F20086003E0BA
:1011B000064800680549086000200249087010BD13
:1011C0000048004086000020870000200C0000201E
:1011D00001F40072B2F5007F00D100BFCA43028063
:1011E000704710B50022002340F66A14A14200D1D6
:1011F00000BF0A1201249440A3B2DC43048010BD56
:1012000021B1828942F40052828104E082894DF644
:10121000FF731A408281704702460020B1F5007FBB
:1012200000D100BF13880B400BB1012000E000206B
:10123000704770B50246002400230025002040F6C8
:101240006A16B14200D100BFC1F3421501F01F037D
:10125000012606FA03F3012D02D19689334006E0F8
:10126000022D02D1168A334001E0968A33400C12D7
:10127000012606FA04F41688344013B10CB101209B
:1012800000E0002070BDF0B50346002400260025D4
:10129000002040F66A17B94200D100BF1846C1F3DA
:1012A000421401F01F06012707FA06F5012C01D1AF
:1012B0000C3004E0022C01D1103000E014301AB1DF
:1012C00007682F43076002E00768AF430760F0BD7F
:1012D0002DE9F04786B005460E460024A24600BF21
:1012E000A1460027B08900B100BF2F462C8A4CF6DA
:1012F000FF700440F08804432C82AC894EF6F31052
:101300000440B08831890843718908430443AC81A3
:10131000AC8A4FF6FF400440B0890443AC8201A878
:10132000FFF72CFD1F48874202D1DDF810A001E035
:10133000DDF80CA0A88900F4004040B10AEBCA0017
:1013400000EB0A1031684900B0FBF1F807E00AEB46
:10135000CA0000EB0A1031688900B0FBF1F8642084
:10136000B8FBF0F004012009642101FB1089A88971
:1013700000F4004040B1322000EBC900B0FBF1F0B6
:1013800000F00700044308E0322000EB091064215C
:10139000B0FBF1F000F00F0004432C8106B0BDE873
:1013A000F08700000038014001468888C0F308003B
:1013B0007047C1F308028280704700BFFEE7490012
:1013C00050EAC12018BF04204A0D18BF40F00100A8
:1013D00040F2FF72B2EB515F08BF40F002000128FB
:1013E00008BF0520704700002DE9F74F144694B060
:1013F0000021C4E902111599079121F00045C9495E
:101400008D4206DC1599C4E9000117B00020BDE843
:10141000F08FC549DFF814A3A9423CDD0799C44EFB
:101420000029C44FC44A1599534619DD01F06EF8DE
:10143000554506D0C14AC24B01F068F8C4E9000125
:101440000AE04FF0D352BE4B01F060F832463B4603
:1014500001F05CF8C4E9000117B00120BDE8F08F8D
:1014600000F0E8FC554506D0B44AB54B00F0E2FC6C
:10147000C4E900010AE04FF0D352B14B00F0DAFCAE
:1014800032463B4600F0D6FCC4E9000117B04FF0ED
:10149000FF30BDE8F08FAB49A942159978DB21F008
:1014A000004183468846A84AA84B00F025FF002249
:1014B000A74B00F0BFFC00F0C5FE099000F0F1FE64
:1014C00006460F469C4A534600F016FF43465A46CE
:1014D00001F010F880468A46984A994B30463946C2
:1014E00000F00AFF2A0D01250B924246534601F0F7
:1014F00001F8032DC4E9000139D00B98C1F30A515A
:10150000401A05EB45111139814230DA9148C34642
:10151000784400EB0510CDF80CA00C90D0E9002326
:101520003046394600F0E8FE02460B46049106902C
:101530005846039900F0EAFF80468A4602460B4669
:101540005846039900F0E2FF049B069A00F0DEFF84
:1015500083460C9803913946D0E90223304600F0C7
:10156000CBFE5A46039B00F0D1FF6D1CBDE70798E8
:101570000028A2BF099817B0BDE8F08F616881F01C
:1015800000416160099817B04042BDE8F08FFFE765
:1015900084461598C1F31301C0F30A50A0F2F53048
:1015A0004FEA601800F01F06C6F1200013900020DB
:1015B0000690079041F4801E05206D4676B1664A7C
:1015C00008EB00017A4452F8213002EB8101B3406C
:1015D0004A68139922FA01F1194305E05F4908EBC3
:1015E0000002794451F82210A1FB0E27A1FB0C1335
:1015F0001A449A4234BF0123002303EB070A05EB88
:101600008003D3E901B70F448F4234BF0121002189
:1016100093448B4411B1934502D903E0934501D221
:10162000012100E00021C3E901B7514445F8201031
:10163000011EA0F10100C1DC0298059F00F10050DD
:10164000800F12900298DDE90356800000F029FE19
:10165000834628460D9100F03BFE6FF01D0201F01D
:1016600071F8CDE90E01304600F032FE6FF03D0218
:1016700001F068F880468A46384600F029FE6FF08F
:101680005D0201F05FF8074642465346119100F0B3
:10169000D1FBDDE90E2300F0CDFB5A460D9B00F097
:1016A000C9FB00250E465A4628460D9B00F02EFF2A
:1016B000DDE90E2300F02AFF4246534600F026FFE4
:1016C0003A46119B00F016FFDFF898A0244A5346D3
:1016D00000F012FE07468846234A244B314628462E
:1016E00000F00AFE3A46434600F0A4FB074688464F
:1016F0004FF0A84253463146284600F0FDFD3A46D9
:10170000434600F097FB159A12F0004F04D0129A4E
:1017100081F0004152421292C4E90001129817B0C0
:10172000BDE8F08FFB21E93F7CD90240FB21F93F66
:101730007370032E8A19A33B000040543163621A70
:1017400061B4D03DFB21394183C8C96D305FE43FAE
:101750000000E03FEC120000681200004A12000096
:10176000182D4454FB21F93D3326A611460B113C9C
:101770002DE9FF4D21F0004807460C46B8F1795F8E
:1017800008DA00F05FFD002801BF0020324904B0F4
:10179000BDE8F08D3A4623461046194600F0ACFDF0
:1017A000054602462D480E460B460621784400F0B9
:1017B0005DF82A46334600F09FFDDDE902238246AC
:1017C0008B463846214600F097FD04460F465246A8
:1017D0005B462846314600F08FFD22463B4600F02E
:1017E00095FE07468A464FF0FF322846314600F004
:1017F000A9FF1B4A90450ADA3A46534600F086FE96
:1018000004B00022BDE8F04D134B00F073BE154A42
:101810004245A8BFA8F500154FF00004B8BF124D0F
:1018200022462B4600F072FE0646884622462B468C
:101830000020094900F06AFE04460D463A46534628
:101840003046414600F062FE04B022462B46BDE819
:10185000F04D00F04FBE00000000F03F20100000EF
:101860003333D33F0000E93F0000D23F2DE9F04180
:101870004F1E00EBC7010446D1E9000115461E4684
:1018800037F006020DD02A46334600F035FD7F1EA4
:1018900004EBC703D3E9002300F0CCFA37F00602CB
:1018A000F1D1022F25D0042F13D0062F18BFBDE889
:1018B000F0812A46334600F01FFDD4E90A2300F0E8
:1018C000B9FA2A46334600F017FDD4E9082300F0A0
:1018D000B1FA2A46334600F00FFDD4E9062300F0A2
:1018E000A9FA2A46334600F007FDD4E9042300F0A4
:1018F000A1FA2A46334600F0FFFCD4E9022300F0A7
:1019000099FA2A46334600F0F7FCD4E90023BDE8F3
:10191000F04100F08FBA00002DE9FF4D054621F09F
:10192000004084B00C46B0F1795F0BDA2846FFF72F
:1019300046FD042808BF00F06FF8284608B021468D
:10194000BDE8F08D2A460B46104600F0D5FC064651
:101950000F462A46234600F0CFFC804626488A469A
:1019600032463B4605217844FFF780FF83461098B6
:10197000029160B3214A224B4046514600F0BCFC24
:10198000CDE900015A4640465146029B00F0B4FCA6
:1019900082468846DDE906014FF0FF3200F0D2FEB4
:1019A0005246434600F0B2FD32463B4600F0A4FCEE
:1019B000DDE9062300F0AAFDDDE9002300F0A6FD25
:1019C00008B02A462346BDE8F04D00F093BD0B4613
:1019D0005A463046394600F08FFC084A084B00F062
:1019E00029FA4246534600F087FC08B02A462346AF
:1019F000BDE8F04D00F01EBA5E0F00004955555588
:101A00005555C5BF012200F09DBE00221346104669
:101A1000114600F0BFBA0000024A0020110700F092
:101A200091BE000001FDFFFF014600BF70470000AE
:101A300000B5244B21F0004287B09A42DCBF00225F
:101A4000134629DD204B9A4208D140B94FF00100DE
:101A5000FEF78FFCFFF7D9FF07B000BD03DBFFF7F0
:101A6000D1FF07B000BD02AAFFF7BEFC10F00301D2
:101A700004BF0DF1080C9CE80F000DD001200129D6
:101A80000ED0022914D00DF1080C00909CE80F0034
:101A9000FFF742FF07B000BDFFF76AFE07B000BDC9
:101AA0000DF1080C00909CE80F00FFF735FF05E0F2
:101AB0000DF1080C9CE80F00FFF75AFE07B081F00B
:101AC000004100BDFB21E93F0000F07F10B56FF041
:101AD0000400FFF78DFA0A4800680A49B0FBF1F0EC
:101AE000094908700846007800EB4001C1EBC010BE
:101AF0004FF6FF7101EAC0000449088010BD0000E4
:101B00009400002000127A00A8000020AA00002003
:101B10000146114A12884A434FF0E0235A610022DD
:101B20009A611A46126942F001021A6100BF4FF031
:101B3000E022106900F001021AB100F48032002A9C
:101B4000F5D04FF0E022126922F001024FF0E023BD
:101B50001A6100229A617047AA00002000BF054A5E
:101B6000128802F04002002AF9D0C2B2014B1B1DBC
:101B70001A8070470038014008B501210820FFF79E
:101B8000EDF82020ADF8000048208DF803006946EC
:101B90000648FEF735FF4020ADF8000048208DF8DC
:101BA000030069460148FEF72BFF08BD000C014009
:101BB0001CB5FFF7E1FF4FF4C060FFF7B3F84FF437
:101BC000165000F0E7F8FFF781FFFFF753F8FEF734
:101BD00085FE4FF416514FF4E130FEF7A7FFFEF7F4
:101BE000D3FC5FE040213048FEF795FF40B920214B
:101BF0002D48FEF790FF18B901202C49086002E03B
:101C000000202A4908602948006801280AD128488C
:101C10000068401C2649086008460068012801D178
:101C2000FEF76CFC2148006800BB2248006822498E
:101C3000096808442149086008460068B42804DBA4
:101C400008460068A0F5B47008601C48006810F1F0
:101C5000B40F05DC1948006800F5B4701749086036
:101C6000FEF7C2FC09211648FFF7F4F840210E48A0
:101C7000FEF751FF20B9002012490860FFF7A0F9D4
:101C80000120104908601048006810490968CDE932
:101C900000100A4803680E4802680E4801680EA04A
:101CA000FEF7BAFA9EE70000000C01407000002029
:101CB000900000200C0000201000002008000020F0
:101CC00074000020B40122426C0000206800002053
:101CD0000000002004000020256C64202020256CDA
:101CE00064202020256420202025642020202564D5
:101CF0000A00000000B5254B21F0004287B09A424F
:101D000003DC0022134600922BE0214B9A4208D1BB
:101D100040B94FF00100FEF72CFBFFF776FE07B04D
:101D200000BD03DBFFF76EFE07B000BD02AAFFF7A0
:101D30005BFB10F003014FF001000DD0012914D01E
:101D400002291AD00DF1080C9CE80F00FFF710FDD6
:101D500007B081F0004100BD0DF1080C00909CE837
:101D60000F00FFF7D9FD07B000BD0DF1080C9CE88E
:101D70000F00FFF7FDFC07B000BD0DF1080C00904F
:101D80009CE80F00FFF7C8FDE2E70000FB21E93FF8
:101D90000000F07F10B586B00446012144F2040033
:101DA000FEF7DCFF4FF40070ADF8140003208DF84F
:101DB000160018208DF8170005A91C48FEF720FE14
:101DC0004FF48060ADF8140004208DF8170005A9C9
:101DD0001648FEF715FE25208DF8000003208DF82B
:101DE00001008DF8020001208DF803006846FEF71F
:101DF00061FF01940020ADF80800ADF80A00ADF8CD
:101E00000C00ADF810000C20ADF80E0001A9084838
:101E1000FFF75EFA012240F225510548FFF733FA39
:101E200001210348FFF7ECF906B010BD000801409E
:101E30000038014010B591EA030F48BF83F000431A
:101E400000F16C83841A71EB030C05D2121943EB79
:101E50000C03001B61EB0C01DFF824E14FEA115485
:101E6000A4EB135C1EEA430F18BF9EEA445F73D0D5
:101E700023EA0E03DCF1200E21EA045143F480131F
:101E800032D322FA0CFE10EB0E0023FA0CFE41EBCB
:101E90000E01CCF1200E03FA0EFE10EB0E0051F1F4
:101EA0000001B1F5801FCCF1200E32D201EB0451BC
:101EB00012FA0EF2BDE8104058BF7047401C38BF00
:101EC0005FEA420218BF7047002814BF20F00100EB
:101ED00041F100014FEA410313F5001F38BF70477D
:101EE000A1F1C04100F000BB012A43EB0302ACF1B9
:101EF000200CDCF11F0E32BF4FF0000E23FA0CF362
:101F000010EB030041EB0451B4EB115FD0D0A1EB17
:101F1000045101F5801149085FEA300001EB0451DA
:101F20000ED350F1000038BF12FA0EFE08D1BDE802
:101F30001040C9E7401C38BF5FEA4202CAD1C3E77C
:101F4000BDE810404FEA410313F5001F38BF70474A
:101F5000A1F1C04100F0C8BA9EEA445F08D011EA7E
:101F60005E0FBDE8104004BF01F000410020704743
:101F7000BDE8104070B500F069FA00BF64FBBE3EDA
:101F80000000E0FF02494FF0000000F0A9BB00BFD5
:101F90000000F87F2DE9C04130B4DFF8A0C23CEA70
:101FA000111418BF3CEA131400F0EC8081EA030519
:101FB0001CEA111444EAD57418BF1CEA131500F08A
:101FC000C780A4EB05044FF0004545EAC12145EA6E
:101FD000C32341EA505143EA525304F17F749942BA
:101FE00004F500344FEAC0204FEAC22208BF9042F5
:101FF00000F09C804FEA13650FF24016765D4FEAC1
:10200000134506FB05F7C7F1807706FB07F74FEA94
:10201000D737A7FB03687642C8F58038A7FB06CE02
:1020200038BFA8F1010807FB08E64FF0000EA6FB39
:10203000028CE6FB03CEDCF1000CCEF1004E38BF83
:10204000AEF1010EA6FB0C584FF000074FF0000553
:10205000E6FB0E87A1FB08C6A0FB07CE16EB0E061B
:1020600045F10005E1FB076515F1E04E7EBFA4F5E3
:1020700080345FEA46066D4116F1800745F10005A0
:102080004FEA17274FEA066647EA0567A6F1DE46DC
:10209000B6F1805F4FEA15251FD9384624F0010CB0
:1020A00005EBC471BCF1FE6F01EB0C1102D8F0BC62
:1020B000BDE8008124425CBF01F5801E9EEAC47F1A
:1020C00002D4F0BCBDE80081244238D4F0BCA1F1B8
:1020D000C041BDE8004100F007BA4FEAD22242EA0F
:1020E00043524FEAD323A7FB02864FEAD02040EAAF
:1020F000415007FB03661EEA0E0F4FEAD12105FB94
:10210000026658BFA6EB0056B6EB00564FEA520ED9
:102110004EEAC37E18EB0E0E56EB530EBDD518EBF0
:1021200002085E417F1C55F10005B6E74FF48015AB
:102130004FF000074FF000064FF00008ADE7F0BC8D
:102140004FF0000001F1C04101F00041BDE8008105
:1021500011EA0C1F0CEA131500D00CE013EA0C1F57
:1021600000F025804FF00000F0BC81EA030101F08F
:102170000041BDE80081F0BCBDE8004181EA0301F7
:1021800000F0B2B9F0BCBDE8004170B500F05EF9F6
:10219000097EFC3E00F007B881EA03014FF0000021
:1021A00001F00041704781EA030100F09DB9F0BCE5
:1021B000BDE800414FF0000021497047FFFDFBF9E9
:1021C000F7F5F4F2F0EEEDEBE9E8E6E4E3E1E0DE6A
:1021D000DDDBDAD8D7D5D4D3D1D0CFCDCCCBCAC8DC
:1021E000C7C6C5C4C2C1C0BFBEBDBCBBBAB9B8B703
:1021F000B6B5B4B3B2B1B0AFAEADACABAAA9A8A8F6
:10220000A7A6A5A4A3A3A2A1A09F9F9E9D9C9C9BC3
:102210009A9999989797969595949393929191906E
:102220008F8F8E8E8D8C8C8B8B8A898988888787FF
:102230008685858484838382828181800000FF0774
:102240000000F87F4FEA41034FEA5353A3F5806340
:10225000D3F11E03C8BFD3F1210C0CDD4FF00042B7
:1022600042EAC12242EA505232FA03FC8CEAE17C93
:10227000ACEBE1707047102BC4BF0020704703F532
:10228000787CBCF1FF3F04D06FF0004282EA21006D
:10229000704770B500F0DAF849922480002070474A
:1022A000F2E710F0004248BF4042B0FA80F310FA63
:1022B00003F10AD0C3F11D0303F580634FEA4150D7
:1022C00002EB035202EBD12170474FF00000704740
:1022D000B0FA80F310FA03F10AD0C3F11D0303F53D
:1022E00080634FEA41504FEA035202EBD12170471D
:1022F0004FF0000070470000DFF848C170B51CEADD
:10230000111E1EBF1CEA13159EEA0C0F95EA0C0F56
:1023100000F06F8081EA030423EA4C134EEAD47E76
:1023200021EA4C1141F4801143F48013AE44A1FB27
:10233000024CA0FB0365AEF17F7E361955EB0C0510
:10234000A1FB034C4CF10003A0FB021C16EB0C0696
:10235000654153F10003094218BF46F0010613F42A
:10236000007F0BD14FEA03314FEA0530340341EAD5
:10237000155140EA16506FF003020AE04FEAC321FC
:102380004FEAC520F40241EA555140EA56506FF039
:10239000020202EB2E4201EB025585EACE710AD011
:1023A0005FEA440C18BF24F0004450F1000041F1F2
:1023B000000120EAD47040F2FE7C624500D270BD7C
:1023C000A84214BF4FF080444FF04044002E08BF95
:1023D0000024BEF1806FA8BFA1F1C041BDE87040EC
:1023E00080F282804FF0000001F1C04101F0004115
:1023F00070479EEA0C0F0CEA131518BF95EA0C0FF4
:1024000006D04FF0000081EA030E0EF0004170BDCF
:1024100000F01CF88900013E00F007B800F009B890
:102420004FEA430C5FEA5C5C08D081EA030100F0EC
:102430005BB84FEA410C5FEA5C5CF6D14FF00000FC
:10244000014970470000FF070000F87F0EF1020EFF
:102450002EF0030E5EF8046B364205D4012A43EBDE
:10246000030515F5001F12D8012841EB010C1CF5DE
:10247000001F0CD80ED14FEAD17C15F5001F0CEBD4
:102480004C0C0CF1020C08BF4CEBD37C04E04FF079
:10249000080C01E04FEAD37C0CEB4C0526FA05F65C
:1024A00006F00706B6F1040C06D20EEB860CBDE86A
:1024B00070404CF0010C6047DFE80CF0090B0202A1
:1024C0004FF000414FF00000A1F5002170BD19460A
:1024D0001046012851EB010418BFD4F5001484BF45
:1024E000002001F0004170BD0808A0F500114FEA7E
:1024F0003101704791EA030F10B581F000413FF5BB
:10250000A1AC83F0004300F009B8000010B591EAD7
:10251000030F48BF83F000433FF594AC841A71EB7E
:10252000030C07D212198CF0004C43EB0C03001B78
:1025300061EB0C01DFF8A4E14FEA1154A4EB135C4A
:102540001EEA430F18BF9EEA445F00F0B08023EA02
:102550006E03524221EA0451C3EB6E0338BF5B1E87
:10256000DCF1200E25D322FA0CFE10EB0E0043FA0C
:102570000CFE41EB0E01CCF1200E03FA0EFE10EB27
:102580000E0051F10001CCF1200E29D412FA0EF206
:1025900001EB0451BDE8104058BF7047401C1CBF00
:1025A000B2F1004F704700280CBF491C20F0010019
:1025B000704712EB020E43EB030218BF4FF0010EFF
:1025C0004EEA4202ACF1200CDCF11E0E54D943FA63
:1025D0000CFE10EB0E0051F1FF31CCF11E0ED5D5E3
:1025E0000EF1010E12FA0EFE404141EB010101EB2A
:1025F000445C5FEA5C5C10D910EBDE7001EB0451C7
:1026000038BFBEF1004FBDE8104018BF704700282A
:102610000CBF491C20F00100704730D24FEAD42C87
:1026200011F5001124F400641BD0B1FA81F20B3AC9
:10263000A41AA41ED2F12003914030FA03F31943E7
:10264000904001EBCC71002C01EB0451BDE810402F
:10265000A8BF704701F1C0414FF0000001F00041F8
:102660007047B0FA80F310FA03F100D110BDE41AFC
:10267000173C4805C90AE4E701EB045110BD4910B5
:1026800001EB0451BDE810404FEA300002E04FF08A
:10269000000170474A0008BF0042F8D0B2F5001FA1
:1026A00028BF704701F000414FF0000070479EEADC
:1026B000445F07D011EA5E0FBDE8104004BF00215F
:1026C00000207047BDE8104070B5FFF7BFFE00BFA7
:1026D00040DFF63E83F00041104670470000E0FF07
:1026E0000CF00F03092B08BF082000F059800A2BBB
:1026F0000BD0082B18BF704708BF1CF0400F0AD042
:102700004FF000004FF0000170471CF0400F18BF61
:102710004FF0004070471CF0100F08D020F07043BD
:1027200000F07F4242EAD3014FEA4370704700F065
:10273000604021F07F4242EA000201F07F4040EA1F
:10274000727070474FF0FF0C4CF4E06C1CEA1153B0
:102750001CBF9CEA030C9445C2BFDA4201EB025154
:102760007047002B0DD0BCF1000F0FD0002A01F0F4
:102770000041A4BF41F0E04141F07F614FF0000013
:10278000704701F000414FF00000704750EA0133FC
:102790004FF09B0C18BF4CF0806C7FF4F3AB70478C
:1027A0001CF4801F11D01CF4E02F03D06FEACC3151
:1027B000490070474FF04050EFF3008222F0704222
:1027C00042EA000282F3008870474FF00000704731
:1027D0004C5555555555A53F7751C1166CC156BF3F
:1027E0009015CB19A001FA3EAD529C804F7E92BE4F
:1027F000C4B1B4BD9EEE213ED43888BEE9FAA8BD6E
:1028000000004054FB21F93F3163621A61B4D03DAE
:102810000000601A61B4D03D7370032E8A19A33B87
:102820000000002E8A19A33BC14920259A837B39D9
:1028300000000000000000006E83F9A22915444E3C
:10284000D15727FCC0DD34F5999562DB4190433CBC
:10285000AB6351FE61C5BBDE3A6E24B7E0D24D4298
:10286000EA2E49061C92D1091CEB1DFE3EA729B198
:10287000F53582E88444BB2E26709CE9417E5FB426
:1028800039D69139F43953838B5F849C3B28F9BD49
:10289000FF97F81F0F9805DE8B112FEF1F6D0A5A57
:1028A000CF7E366DB709CB27663F464F2DEA5F9E38
:1028B000C7BA27757BF1E5EBF739073DEA92528AF3
:1028C000B15FFB6B085D8D1FA6F810111111813FE0
:1028D000D561C119A0012ABF7DFEB157E31DC73ED6
:1028E000EB9C2B8AE6E55ABE7CD5CF5A3AD9E53D1A
:1028F0001029000800000020C80000006C0100083A
:10290000D8290008C8000020280700008801000816
:1029100000000000000000000000000000000000B7
:1029200000000000000000000000000000000000A7
:102930000000000000000000000000000000000097
:102940000000000000000000000000000000000087
:102950000000000000000000000000000000000077
:102960000000000000000000000000000000000067
:10297000EB73753F48BF853F00000000000000007A
:1029800000000000AA00000000000000000000009D
:1029900000000000550000000000000000000000E2
:1029A0000000000000A24A04000000000000000037
:1029B00001020304060708090000000000000000EF
:1029C00000000000000001020304010203040607E6
:0829D0000809020406080000DA
:0400000508000131BD
:00000001FF
